{
  "_format": "hh-sol-artifact-1",
  "contractName": "RpgBaseCharacterFactory",
  "sourceName": "contracts/01-RpgBaseCharacterFactory.sol",
  "abi": [
    {
      "anonymous": false,
      "inputs": [
        {
          "indexed": false,
          "internalType": "uint256",
          "name": "characterId",
          "type": "uint256"
        },
        {
          "indexed": false,
          "internalType": "string",
          "name": "name",
          "type": "string"
        },
        {
          "indexed": false,
          "internalType": "uint256",
          "name": "dna",
          "type": "uint256"
        }
      ],
      "name": "NewCharacterCreated",
      "type": "event"
    },
    {
      "inputs": [
        {
          "internalType": "uint256",
          "name": "",
          "type": "uint256"
        }
      ],
      "name": "characters",
      "outputs": [
        {
          "internalType": "string",
          "name": "name",
          "type": "string"
        },
        {
          "internalType": "uint256",
          "name": "dna",
          "type": "uint256"
        }
      ],
      "stateMutability": "view",
      "type": "function"
    }
  ],
  "bytecode": "0x6080604052600c6000806101000a81548160ff021916908360ff16021790555060008054906101000a900460ff16600a61003991906100a1565b60015534801561004857600080fd5b50610212565b6000808291508390505b600185111561009857808604811115610074576100736101d6565b5b60018516156100835780820291505b808102905061009185610205565b9450610058565b94509492505050565b60006100ac826101bf565b91506100b7836101c9565b92506100e47fffffffffffffffffffffffffffffffffffffffffffffffffffffffffffffffff84846100ec565b905092915050565b6000826100fc57600190506101b8565b8161010a57600090506101b8565b8160018114610120576002811461012a57610159565b60019150506101b8565b60ff84111561013c5761013b6101d6565b5b8360020a915084821115610153576101526101d6565b5b506101b8565b5060208310610133831016604e8410600b841016171561018e5782820a905083811115610189576101886101d6565b5b6101b8565b61019b848484600161004e565b925090508184048111156101b2576101b16101d6565b5b81810290505b9392505050565b6000819050919050565b600060ff82169050919050565b7f4e487b7100000000000000000000000000000000000000000000000000000000600052601160045260246000fd5b60008160011c9050919050565b6102eb806102216000396000f3fe608060405234801561001057600080fd5b506004361061002b5760003560e01c80634810bc5914610030575b600080fd5b61004a60048036038101906100459190610132565b610061565b6040516100589291906101a3565b60405180910390f35b6002818154811061007157600080fd5b90600052602060002090600202016000915090508060000180546100949061022c565b80601f01602080910402602001604051908101604052809291908181526020018280546100c09061022c565b801561010d5780601f106100e25761010080835404028352916020019161010d565b820191906000526020600020905b8154815290600101906020018083116100f057829003601f168201915b5050505050908060010154905082565b60008135905061012c8161029e565b92915050565b60006020828403121561014457600080fd5b60006101528482850161011d565b91505092915050565b6000610166826101d3565b61017081856101de565b93506101808185602086016101f9565b6101898161028d565b840191505092915050565b61019d816101ef565b82525050565b600060408201905081810360008301526101bd818561015b565b90506101cc6020830184610194565b9392505050565b600081519050919050565b600082825260208201905092915050565b6000819050919050565b60005b838110156102175780820151818401526020810190506101fc565b83811115610226576000848401525b50505050565b6000600282049050600182168061024457607f821691505b602082108114156102585761025761025e565b5b50919050565b7f4e487b7100000000000000000000000000000000000000000000000000000000600052602260045260246000fd5b6000601f19601f8301169050919050565b6102a7816101ef565b81146102b257600080fd5b5056fea26469706673582212206c1e71ac1b10c869338b18f6f547fdb8478438d5bf2aa1ce8c53df42d7a8367964736f6c63430008040033",
  "linkReferences": {},
  "deployedLinkReferences": {}
}