{
  "_format": "hh-sol-artifact-1",
  "contractName": "RpgBattleSystem",
  "sourceName": "contracts/03-RpgBattleSystem.sol",
  "abi": [
    {
      "anonymous": false,
      "inputs": [
        {
          "indexed": false,
          "internalType": "uint256",
          "name": "characterId",
          "type": "uint256"
        },
        {
          "indexed": false,
          "internalType": "uint256",
          "name": "targetId",
          "type": "uint256"
        },
        {
          "indexed": false,
          "internalType": "enum RpgBattleSystem.BattleResult",
          "name": "battleResult",
          "type": "uint8"
        }
      ],
      "name": "NewBattleEvent",
      "type": "event"
    },
    {
      "anonymous": false,
      "inputs": [
        {
          "indexed": false,
          "internalType": "uint256",
          "name": "characterId",
          "type": "uint256"
        },
        {
          "indexed": false,
          "internalType": "string",
          "name": "name",
          "type": "string"
        },
        {
          "indexed": false,
          "internalType": "uint256",
          "name": "dna",
          "type": "uint256"
        }
      ],
      "name": "NewCharacterCreated",
      "type": "event"
    },
    {
      "inputs": [
        {
          "internalType": "uint256",
          "name": "_characterId",
          "type": "uint256"
        },
        {
          "internalType": "uint256",
          "name": "_targetId",
          "type": "uint256"
        }
      ],
      "name": "attack",
      "outputs": [],
      "stateMutability": "nonpayable",
      "type": "function"
    },
    {
      "inputs": [
        {
          "internalType": "uint256",
          "name": "",
          "type": "uint256"
        }
      ],
      "name": "characters",
      "outputs": [
        {
          "internalType": "string",
          "name": "name",
          "type": "string"
        },
        {
          "internalType": "uint256",
          "name": "dna",
          "type": "uint256"
        }
      ],
      "stateMutability": "view",
      "type": "function"
    },
    {
      "inputs": [
        {
          "internalType": "string",
          "name": "_name",
          "type": "string"
        }
      ],
      "name": "createRandomCharacter",
      "outputs": [
        {
          "internalType": "uint256",
          "name": "",
          "type": "uint256"
        }
      ],
      "stateMutability": "nonpayable",
      "type": "function"
    },
    {
      "inputs": [
        {
          "internalType": "uint256",
          "name": "",
          "type": "uint256"
        }
      ],
      "name": "enhancedCharacters",
      "outputs": [
        {
          "internalType": "uint256",
          "name": "id",
          "type": "uint256"
        }
      ],
      "stateMutability": "view",
      "type": "function"
    },
    {
      "inputs": [
        {
          "internalType": "uint256",
          "name": "_characterId",
          "type": "uint256"
        }
      ],
      "name": "getCharacterStats",
      "outputs": [
        {
          "internalType": "uint8[]",
          "name": "",
          "type": "uint8[]"
        }
      ],
      "stateMutability": "view",
      "type": "function"
    }
  ],
  "bytecode": "0x6080604052600c6000806101000a81548160ff021916908360ff16021790555060008054906101000a900460ff16600a6200003b91906200019b565b600155600260008054906101000a900460ff166200005a919062000108565b60ff166005556019600660006101000a81548160ff021916908360ff1602179055506019600860006101000a81548160ff021916908360ff1602179055506101f4600860016101000a81548161ffff021916908361ffff160217905550601e600860036101000a81548160ff021916908360ff1602179055506003600860046101000a81548160ff021916908360ff16021790555060326009553480156200010157600080fd5b506200035a565b60006200011582620002e2565b91506200012283620002e2565b9250826200013557620001346200031e565b5b828204905092915050565b6000808291508390505b600185111562000192578086048111156200016a5762000169620002ef565b5b60018516156200017a5780820291505b80810290506200018a856200034d565b94506200014a565b94509492505050565b6000620001a882620002d8565b9150620001b583620002e2565b9250620001e47fffffffffffffffffffffffffffffffffffffffffffffffffffffffffffffffff8484620001ec565b905092915050565b600082620001fe5760019050620002d1565b816200020e5760009050620002d1565b8160018114620002275760028114620002325762000268565b6001915050620002d1565b60ff841115620002475762000246620002ef565b5b8360020a915084821115620002615762000260620002ef565b5b50620002d1565b5060208310610133831016604e8410600b8410161715620002a25782820a9050838111156200029c576200029b620002ef565b5b620002d1565b620002b1848484600162000140565b92509050818404811115620002cb57620002ca620002ef565b5b81810290505b9392505050565b6000819050919050565b600060ff82169050919050565b7f4e487b7100000000000000000000000000000000000000000000000000000000600052601160045260246000fd5b7f4e487b7100000000000000000000000000000000000000000000000000000000600052601260045260246000fd5b60008160011c9050919050565b6122c4806200036a6000396000f3fe608060405234801561001057600080fd5b50600436106100575760003560e01c80633be5c2961461005c5780634810bc591461008c578063672c7c0c146100bd5780636fe0c046146100ed578063e1fa76381461011d575b600080fd5b610076600480360381019061007191906114a3565b610139565b60405161008391906118f1565b60405180910390f35b6100a660048036038101906100a191906114e4565b610353565b6040516100b4929190611803565b60405180910390f35b6100d760048036038101906100d291906114e4565b61040f565b6040516100e491906118f1565b60405180910390f35b610107600480360381019061010291906114e4565b61043d565b60405161011491906117bf565b60405180910390f35b6101376004803603810190610132919061150d565b6106cb565b005b60008061014583610d93565b9050600060028281548110610183577f4e487b7100000000000000000000000000000000000000000000000000000000600052603260045260246000fd5b906000526020600020906002020190506000600760018160018154018082558091505003906000526020600020906002020190508281600001819055506101e76101d283600101546000610e3b565b600660009054906101000a900460ff16610ee4565b816001016000806001811115610226577f4e487b7100000000000000000000000000000000000000000000000000000000600052602160045260246000fd5b600181111561025e577f4e487b7100000000000000000000000000000000000000000000000000000000600052602160045260246000fd5b815260200190815260200160002060006101000a81548160ff021916908360ff1602179055506102ab61029683600101546001610e3b565b600660009054906101000a900460ff16610ee4565b8160010160006001808111156102ea577f4e487b7100000000000000000000000000000000000000000000000000000000600052602160045260246000fd5b6001811115610322577f4e487b7100000000000000000000000000000000000000000000000000000000600052602160045260246000fd5b815260200190815260200160002060006101000a81548160ff021916908360ff160217905550829350505050919050565b6002818154811061036357600080fd5b906000526020600020906002020160009150905080600001805461038690611e8c565b80601f01602080910402602001604051908101604052809291908181526020018280546103b290611e8c565b80156103ff5780601f106103d4576101008083540402835291602001916103ff565b820191906000526020600020905b8154815290600101906020018083116103e257829003601f168201915b5050505050908060010154905082565b6007818154811061041f57600080fd5b90600052602060002090600202016000915090508060000154905081565b60606000600267ffffffffffffffff811115610482577f4e487b7100000000000000000000000000000000000000000000000000000000600052604160045260246000fd5b6040519080825280602002602001820160405280156104b05781602001602082028036833780820191505090505b5090506000600784815481106104ef577f4e487b7100000000000000000000000000000000000000000000000000000000600052603260045260246000fd5b9060005260206000209060020201905080600101600080600181111561053e577f4e487b7100000000000000000000000000000000000000000000000000000000600052602160045260246000fd5b6001811115610576577f4e487b7100000000000000000000000000000000000000000000000000000000600052602160045260246000fd5b815260200190815260200160002060009054906101000a900460ff16826000815181106105cc577f4e487b7100000000000000000000000000000000000000000000000000000000600052603260045260246000fd5b602002602001019060ff16908160ff168152505080600101600060018081111561061f577f4e487b7100000000000000000000000000000000000000000000000000000000600052602160045260246000fd5b6001811115610657577f4e487b7100000000000000000000000000000000000000000000000000000000600052602160045260246000fd5b815260200190815260200160002060009054906101000a900460ff16826001815181106106ad577f4e487b7100000000000000000000000000000000000000000000000000000000600052603260045260246000fd5b602002602001019060ff16908160ff16815250508192505050919050565b8181600780549050811080156106e15750808214155b610720576040517f08c379a0000000000000000000000000000000000000000000000000000000008152600401610717906118d1565b60405180910390fd5b6007805490508210801561079257503373ffffffffffffffffffffffffffffffffffffffff166003600084815260200190815260200160002060009054906101000a900473ffffffffffffffffffffffffffffffffffffffff1673ffffffffffffffffffffffffffffffffffffffff16145b6107d1576040517f08c379a00000000000000000000000000000000000000000000000000000000081526004016107c8906118b1565b60405180910390fd5b600954600a6000848152602001908152602001600020546107f29190611a37565b4211610833576040517f08c379a000000000000000000000000000000000000000000000000000000000815260040161082a90611891565b60405180910390fd5b6108566040518060600160405280602c815260200161221d602c91398585610f20565b600060078581548110610892577f4e487b7100000000000000000000000000000000000000000000000000000000600052603260045260246000fd5b906000526020600020906002020190506000600860019054906101000a900461ffff1660010b90506000600786815481106108f6577f4e487b7100000000000000000000000000000000000000000000000000000000600052603260045260246000fd5b906000526020600020906002020190506000600860019054906101000a900461ffff1660010b9050600080600090506000805b600860039054906101000a900460ff1660ff168360ff1610801561094d5750600087135b80156109595750600085135b15610d2957828061096990611f38565b93505083159350600860009054906101000a900460ff1660ff1660644244338760405160200161099c9493929190611771565b6040516020818303038152906040528051906020012060001c6109bf9190611fa2565b111590508015610a56578315610a1257610a0d6040518060400160405280601081526020017f41747461636b6572206d69737365642100000000000000000000000000000000815250610fbf565b610a51565b610a506040518060400160405280600e81526020017f546172676574206d697373656421000000000000000000000000000000000000815250610fbf565b5b610929565b8315610bc257610b8b886001016000806001811115610a9e577f4e487b7100000000000000000000000000000000000000000000000000000000600052602160045260246000fd5b6001811115610ad6577f4e487b7100000000000000000000000000000000000000000000000000000000600052602160045260246000fd5b815260200190815260200160002060009054906101000a900460ff16876001016000600180811115610b31577f4e487b7100000000000000000000000000000000000000000000000000000000600052602160045260246000fd5b6001811115610b69577f4e487b7100000000000000000000000000000000000000000000000000000000600052602160045260246000fd5b815260200190815260200160002060009054906101000a900460ff1685611058565b91508185610b999190611cfa565b9450610bbd60405180606001604052806024815260200161224960249139836110d8565b610d24565b610cf1866001016000806001811115610c04577f4e487b7100000000000000000000000000000000000000000000000000000000600052602160045260246000fd5b6001811115610c3c577f4e487b7100000000000000000000000000000000000000000000000000000000600052602160045260246000fd5b815260200190815260200160002060009054906101000a900460ff16896001016000600180811115610c97577f4e487b7100000000000000000000000000000000000000000000000000000000600052602160045260246000fd5b6001811115610ccf577f4e487b7100000000000000000000000000000000000000000000000000000000600052602160045260246000fd5b815260200190815260200160002060009054906101000a900460ff1685611058565b91508187610cff9190611cfa565b9650610d2360405180606001604052806022815260200161226d60229139836110d8565b5b610929565b42600a60008e8152602001908152602001600020819055507f6755df6077a4a8023b9829ca2686fb72d88899e34cfdf95730b3851de49d3de68c8c610d6e8a89611174565b604051610d7d9392919061194a565b60405180910390a1505050505050505050505050565b600080600460003373ffffffffffffffffffffffffffffffffffffffff1673ffffffffffffffffffffffffffffffffffffffff1681526020019081526020016000205414610e16576040517f08c379a0000000000000000000000000000000000000000000000000000000008152600401610e0d90611871565b60405180910390fd5b6000610e21836111a2565b90506000610e2f84836111ed565b90508092505050919050565b60008060005b60055484610e4f9190611ca0565b811015610e7857600a85610e639190611afe565b94508080610e7090611eef565b915050610e41565b5060005b600554811015610ed957600a85610e939190611fa2565b81600a610ea09190611b82565b610eaa9190611ca0565b82610eb59190611a8d565b9150600a85610ec49190611afe565b94508080610ed190611eef565b915050610e7c565b508091505092915050565b6000806001606485610ef69190611fd3565b610f009190611ac7565b90508260ff168160ff1610610f155780610f17565b825b91505092915050565b610fba838383604051602401610f3893929190611833565b6040516020818303038152906040527f969cdd03000000000000000000000000000000000000000000000000000000007bffffffffffffffffffffffffffffffffffffffffffffffffffffffff19166020820180517bffffffffffffffffffffffffffffffffffffffffffffffffffffffff838183161783525050505061135a565b505050565b61105581604051602401610fd391906117e1565b6040516020818303038152906040527f41304fac000000000000000000000000000000000000000000000000000000007bffffffffffffffffffffffffffffffffffffffffffffffffffffffff19166020820180517bffffffffffffffffffffffffffffffffffffffffffffffffffffffff838183161783525050505061135a565b50565b6000806064424433866040516020016110749493929190611771565b6040516020818303038152906040528051906020012060001c6110979190611fa2565b90506001818560ff166110aa9190611a37565b60646110b69190611afe565b6110c09190611a37565b8560ff166110ce9190611ca0565b9150509392505050565b61117082826040516024016110ee929190611803565b6040516020818303038152906040527f9710a9d0000000000000000000000000000000000000000000000000000000007bffffffffffffffffffffffffffffffffffffffffffffffffffffffff19166020820180517bffffffffffffffffffffffffffffffffffffffffffffffffffffffff838183161783525050505061135a565b5050565b6000808313611186576000905061119c565b60008213611197576001905061119c565b600290505b92915050565b600080424433856040516020016111bc9493929190611727565b6040516020818303038152906040528051906020012060001c9050600154816111e59190611fa2565b915050919050565b600060026040518060400160405280858152602001848152509080600181540180825580915050600190039060005260206000209060020201600090919091909150600082015181600001908051906020019061124b929190611383565b506020820151816001015550506000600160028054905061126c9190611d8e565b9050336003600083815260200190815260200160002060006101000a81548173ffffffffffffffffffffffffffffffffffffffff021916908373ffffffffffffffffffffffffffffffffffffffff160217905550600460003373ffffffffffffffffffffffffffffffffffffffff1673ffffffffffffffffffffffffffffffffffffffff168152602001908152602001600020600081548092919061131090611eef565b91905055507fcf9664bad2c3dc9f7fb5149e25fbb1c3f62b3901b988d7da988a2730409863c88185856040516113489392919061190c565b60405180910390a18091505092915050565b60008151905060006a636f6e736f6c652e6c6f679050602083016000808483855afa5050505050565b82805461138f90611e8c565b90600052602060002090601f0160209004810192826113b157600085556113f8565b82601f106113ca57805160ff19168380011785556113f8565b828001600101855582156113f8579182015b828111156113f75782518255916020019190600101906113dc565b5b5090506114059190611409565b5090565b5b8082111561142257600081600090555060010161140a565b5090565b6000611439611434846119a6565b611981565b90508281526020810184848401111561145157600080fd5b61145c848285611e4a565b509392505050565b600082601f83011261147557600080fd5b8135611485848260208601611426565b91505092915050565b60008135905061149d81612205565b92915050565b6000602082840312156114b557600080fd5b600082013567ffffffffffffffff8111156114cf57600080fd5b6114db84828501611464565b91505092915050565b6000602082840312156114f657600080fd5b60006115048482850161148e565b91505092915050565b6000806040838503121561152057600080fd5b600061152e8582860161148e565b925050602061153f8582860161148e565b9150509250929050565b60006115558383611701565b60208301905092915050565b61157261156d82611dc2565b611f62565b82525050565b6000611583826119e7565b61158d8185611a0a565b9350611598836119d7565b8060005b838110156115c95781516115b08882611549565b97506115bb836119fd565b92505060018101905061159c565b5085935050505092915050565b6115df81611e38565b82525050565b60006115f0826119f2565b6115fa8185611a1b565b935061160a818560208601611e59565b611613816120ef565b840191505092915050565b6000611629826119f2565b6116338185611a2c565b9350611643818560208601611e59565b80840191505092915050565b600061165c601f83611a1b565b915061166782612127565b602082019050919050565b600061167f603c83611a1b565b915061168a82612150565b604082019050919050565b60006116a2601483611a1b565b91506116ad8261219f565b602082019050919050565b60006116c5601183611a1b565b91506116d0826121c8565b602082019050919050565b6116e481611e11565b82525050565b6116fb6116f682611e11565b611f86565b82525050565b61170a81611e2b565b82525050565b61172161171c82611e2b565b611f90565b82525050565b600061173382876116ea565b60208201915061174382866116ea565b6020820191506117538285611561565b601482019150611763828461161e565b915081905095945050505050565b600061177d82876116ea565b60208201915061178d82866116ea565b60208201915061179d8285611561565b6014820191506117ad8284611710565b60018201915081905095945050505050565b600060208201905081810360008301526117d98184611578565b905092915050565b600060208201905081810360008301526117fb81846115e5565b905092915050565b6000604082019050818103600083015261181d81856115e5565b905061182c60208301846116db565b9392505050565b6000606082019050818103600083015261184d81866115e5565b905061185c60208301856116db565b61186960408301846116db565b949350505050565b6000602082019050818103600083015261188a8161164f565b9050919050565b600060208201905081810360008301526118aa81611672565b9050919050565b600060208201905081810360008301526118ca81611695565b9050919050565b600060208201905081810360008301526118ea816116b8565b9050919050565b600060208201905061190660008301846116db565b92915050565b600060608201905061192160008301866116db565b818103602083015261193381856115e5565b905061194260408301846116db565b949350505050565b600060608201905061195f60008301866116db565b61196c60208301856116db565b61197960408301846115d6565b949350505050565b600061198b61199c565b90506119978282611ebe565b919050565b6000604051905090565b600067ffffffffffffffff8211156119c1576119c06120c0565b5b6119ca826120ef565b9050602081019050919050565b6000819050602082019050919050565b600081519050919050565b600081519050919050565b6000602082019050919050565b600082825260208201905092915050565b600082825260208201905092915050565b600081905092915050565b6000611a4282611e11565b9150611a4d83611e11565b9250827fffffffffffffffffffffffffffffffffffffffffffffffffffffffffffffffff03821115611a8257611a81612004565b5b828201905092915050565b6000611a9882611e1b565b9150611aa383611e1b565b92508263ffffffff03821115611abc57611abb612004565b5b828201905092915050565b6000611ad282611e2b565b9150611add83611e2b565b92508260ff03821115611af357611af2612004565b5b828201905092915050565b6000611b0982611e11565b9150611b1483611e11565b925082611b2457611b23612033565b5b828204905092915050565b6000808291508390505b6001851115611b7957808604811115611b5557611b54612004565b5b6001851615611b645780820291505b8081029050611b728561211a565b9450611b39565b94509492505050565b6000611b8d82611e11565b9150611b9883611e11565b9250611bc57fffffffffffffffffffffffffffffffffffffffffffffffffffffffffffffffff8484611bcd565b905092915050565b600082611bdd5760019050611c99565b81611beb5760009050611c99565b8160018114611c015760028114611c0b57611c3a565b6001915050611c99565b60ff841115611c1d57611c1c612004565b5b8360020a915084821115611c3457611c33612004565b5b50611c99565b5060208310610133831016604e8410600b8410161715611c6f5782820a905083811115611c6a57611c69612004565b5b611c99565b611c7c8484846001611b2f565b92509050818404811115611c9357611c92612004565b5b81810290505b9392505050565b6000611cab82611e11565b9150611cb683611e11565b9250817fffffffffffffffffffffffffffffffffffffffffffffffffffffffffffffffff0483118215151615611cef57611cee612004565b5b828202905092915050565b6000611d0582611de7565b9150611d1083611de7565b9250827f800000000000000000000000000000000000000000000000000000000000000001821260008412151615611d4b57611d4a612004565b5b827f7fffffffffffffffffffffffffffffffffffffffffffffffffffffffffffffff018213600084121615611d8357611d82612004565b5b828203905092915050565b6000611d9982611e11565b9150611da483611e11565b925082821015611db757611db6612004565b5b828203905092915050565b6000611dcd82611df1565b9050919050565b6000819050611de2826121f1565b919050565b6000819050919050565b600073ffffffffffffffffffffffffffffffffffffffff82169050919050565b6000819050919050565b600063ffffffff82169050919050565b600060ff82169050919050565b6000611e4382611dd4565b9050919050565b82818337600083830152505050565b60005b83811015611e77578082015181840152602081019050611e5c565b83811115611e86576000848401525b50505050565b60006002820490506001821680611ea457607f821691505b60208210811415611eb857611eb7612091565b5b50919050565b611ec7826120ef565b810181811067ffffffffffffffff82111715611ee657611ee56120c0565b5b80604052505050565b6000611efa82611e11565b91507fffffffffffffffffffffffffffffffffffffffffffffffffffffffffffffffff821415611f2d57611f2c612004565b5b600182019050919050565b6000611f4382611e2b565b915060ff821415611f5757611f56612004565b5b600182019050919050565b6000611f6d82611f74565b9050919050565b6000611f7f8261210d565b9050919050565b6000819050919050565b6000611f9b82612100565b9050919050565b6000611fad82611e11565b9150611fb883611e11565b925082611fc857611fc7612033565b5b828206905092915050565b6000611fde82611e1b565b9150611fe983611e1b565b925082611ff957611ff8612033565b5b828206905092915050565b7f4e487b7100000000000000000000000000000000000000000000000000000000600052601160045260246000fd5b7f4e487b7100000000000000000000000000000000000000000000000000000000600052601260045260246000fd5b7f4e487b7100000000000000000000000000000000000000000000000000000000600052602160045260246000fd5b7f4e487b7100000000000000000000000000000000000000000000000000000000600052602260045260246000fd5b7f4e487b7100000000000000000000000000000000000000000000000000000000600052604160045260246000fd5b6000601f19601f8301169050919050565b60008160f81b9050919050565b60008160601b9050919050565b60008160011c9050919050565b7f596f752063616e206f6e6c792068617665206f6e652063686172616374657200600082015250565b7f596f752063616e206e6f742061747461636b20746f6f206672657175656e746c60008201527f792c20686176652061207265737420666f722061207768696c652e2e00000000602082015250565b7f496e76616c696420436861726163746572204944000000000000000000000000600082015250565b7f496e76616c696420546172676574204944000000000000000000000000000000600082015250565b6003811061220257612201612062565b5b50565b61220e81611e11565b811461221957600080fd5b5056fe0a4368617261637465725b25735d2069732061747461636b696e6720746f204368617261637465725b25735d41747461636b65722773207475726e2c206170706c79696e672064616d6167653a2025735461726765742773207475726e2c206170706c79696e672064616d6167653a202573a2646970667358221220c67e7eb5733906893b1bc0da2d64b38851d9dc040622c3abe7eccb228533c98a64736f6c63430008040033",
  "linkReferences": {},
  "deployedLinkReferences": {}
}