{
  "_format": "hh-sol-artifact-1",
  "contractName": "RpgEnhancedCharacterFactory",
  "sourceName": "contracts/02-RpgEnhancedCharacterFactory.sol",
  "abi": [
    {
      "anonymous": false,
      "inputs": [
        {
          "indexed": false,
          "internalType": "uint256",
          "name": "characterId",
          "type": "uint256"
        },
        {
          "indexed": false,
          "internalType": "string",
          "name": "name",
          "type": "string"
        },
        {
          "indexed": false,
          "internalType": "uint256",
          "name": "dna",
          "type": "uint256"
        }
      ],
      "name": "NewCharacterCreated",
      "type": "event"
    },
    {
      "inputs": [
        {
          "internalType": "uint256",
          "name": "",
          "type": "uint256"
        }
      ],
      "name": "characters",
      "outputs": [
        {
          "internalType": "string",
          "name": "name",
          "type": "string"
        },
        {
          "internalType": "uint256",
          "name": "dna",
          "type": "uint256"
        }
      ],
      "stateMutability": "view",
      "type": "function"
    },
    {
      "inputs": [
        {
          "internalType": "string",
          "name": "_name",
          "type": "string"
        }
      ],
      "name": "createRandomCharacter",
      "outputs": [
        {
          "internalType": "uint256",
          "name": "",
          "type": "uint256"
        }
      ],
      "stateMutability": "nonpayable",
      "type": "function"
    },
    {
      "inputs": [
        {
          "internalType": "uint256",
          "name": "",
          "type": "uint256"
        }
      ],
      "name": "enhancedCharacters",
      "outputs": [
        {
          "internalType": "uint256",
          "name": "id",
          "type": "uint256"
        }
      ],
      "stateMutability": "view",
      "type": "function"
    },
    {
      "inputs": [
        {
          "internalType": "uint256",
          "name": "_characterId",
          "type": "uint256"
        }
      ],
      "name": "getCharacterStats",
      "outputs": [
        {
          "internalType": "uint8[]",
          "name": "",
          "type": "uint8[]"
        }
      ],
      "stateMutability": "view",
      "type": "function"
    }
  ],
  "bytecode": "0x6080604052600c6000806101000a81548160ff021916908360ff16021790555060008054906101000a900460ff16600a6200003b919062000123565b600155600260008054906101000a900460ff166200005a919062000090565b60ff166005556019600660006101000a81548160ff021916908360ff1602179055503480156200008957600080fd5b50620002e2565b60006200009d826200026a565b9150620000aa836200026a565b925082620000bd57620000bc620002a6565b5b828204905092915050565b6000808291508390505b60018511156200011a57808604811115620000f257620000f162000277565b5b6001851615620001025780820291505b80810290506200011285620002d5565b9450620000d2565b94509492505050565b6000620001308262000260565b91506200013d836200026a565b92506200016c7fffffffffffffffffffffffffffffffffffffffffffffffffffffffffffffffff848462000174565b905092915050565b60008262000186576001905062000259565b8162000196576000905062000259565b8160018114620001af5760028114620001ba57620001f0565b600191505062000259565b60ff841115620001cf57620001ce62000277565b5b8360020a915084821115620001e957620001e862000277565b5b5062000259565b5060208310610133831016604e8410600b84101617156200022a5782820a90508381111562000224576200022362000277565b5b62000259565b620002398484846001620000c8565b9250905081840481111562000253576200025262000277565b5b81810290505b9392505050565b6000819050919050565b600060ff82169050919050565b7f4e487b7100000000000000000000000000000000000000000000000000000000600052601160045260246000fd5b7f4e487b7100000000000000000000000000000000000000000000000000000000600052601260045260246000fd5b60008160011c9050919050565b61146280620002f26000396000f3fe608060405234801561001057600080fd5b506004361061004c5760003560e01c80633be5c296146100515780634810bc5914610081578063672c7c0c146100b25780636fe0c046146100e2575b600080fd5b61006b60048036038101906100669190610b09565b610112565b6040516100789190610d7e565b60405180910390f35b61009b60048036038101906100969190610b4a565b61032c565b6040516100a9929190610d2e565b60405180910390f35b6100cc60048036038101906100c79190610b4a565b6103e8565b6040516100d99190610d7e565b60405180910390f35b6100fc60048036038101906100f79190610b4a565b610416565b6040516101099190610d0c565b60405180910390f35b60008061011e836106a4565b905060006002828154811061015c577f4e487b7100000000000000000000000000000000000000000000000000000000600052603260045260246000fd5b906000526020600020906002020190506000600760018160018154018082558091505003906000526020600020906002020190508281600001819055506101c06101ab8360010154600061074c565b600660009054906101000a900460ff166107f5565b8160010160008060018111156101ff577f4e487b7100000000000000000000000000000000000000000000000000000000600052602160045260246000fd5b6001811115610237577f4e487b7100000000000000000000000000000000000000000000000000000000600052602160045260246000fd5b815260200190815260200160002060006101000a81548160ff021916908360ff16021790555061028461026f8360010154600161074c565b600660009054906101000a900460ff166107f5565b8160010160006001808111156102c3577f4e487b7100000000000000000000000000000000000000000000000000000000600052602160045260246000fd5b60018111156102fb577f4e487b7100000000000000000000000000000000000000000000000000000000600052602160045260246000fd5b815260200190815260200160002060006101000a81548160ff021916908360ff160217905550829350505050919050565b6002818154811061033c57600080fd5b906000526020600020906002020160009150905080600001805461035f906111c9565b80601f016020809104026020016040519081016040528092919081815260200182805461038b906111c9565b80156103d85780601f106103ad576101008083540402835291602001916103d8565b820191906000526020600020905b8154815290600101906020018083116103bb57829003601f168201915b5050505050908060010154905082565b600781815481106103f857600080fd5b90600052602060002090600202016000915090508060000154905081565b60606000600267ffffffffffffffff81111561045b577f4e487b7100000000000000000000000000000000000000000000000000000000600052604160045260246000fd5b6040519080825280602002602001820160405280156104895781602001602082028036833780820191505090505b5090506000600784815481106104c8577f4e487b7100000000000000000000000000000000000000000000000000000000600052603260045260246000fd5b90600052602060002090600202019050806001016000806001811115610517577f4e487b7100000000000000000000000000000000000000000000000000000000600052602160045260246000fd5b600181111561054f577f4e487b7100000000000000000000000000000000000000000000000000000000600052602160045260246000fd5b815260200190815260200160002060009054906101000a900460ff16826000815181106105a5577f4e487b7100000000000000000000000000000000000000000000000000000000600052603260045260246000fd5b602002602001019060ff16908160ff16815250508060010160006001808111156105f8577f4e487b7100000000000000000000000000000000000000000000000000000000600052602160045260246000fd5b6001811115610630577f4e487b7100000000000000000000000000000000000000000000000000000000600052602160045260246000fd5b815260200190815260200160002060009054906101000a900460ff1682600181518110610686577f4e487b7100000000000000000000000000000000000000000000000000000000600052603260045260246000fd5b602002602001019060ff16908160ff16815250508192505050919050565b600080600460003373ffffffffffffffffffffffffffffffffffffffff1673ffffffffffffffffffffffffffffffffffffffff1681526020019081526020016000205414610727576040517f08c379a000000000000000000000000000000000000000000000000000000000815260040161071e90610d5e565b60405180910390fd5b600061073283610831565b90506000610740848361087c565b90508092505050919050565b60008060005b6005548461076091906110a0565b81101561078957600a856107749190610efe565b945080806107819061122c565b915050610752565b5060005b6005548110156107ea57600a856107a491906112a3565b81600a6107b19190610f82565b6107bb91906110a0565b826107c69190610e8d565b9150600a856107d59190610efe565b945080806107e29061122c565b91505061078d565b508091505092915050565b600080600160648561080791906112d4565b6108119190610ec7565b90508260ff168160ff16106108265780610828565b825b91505092915050565b6000804244338560405160200161084b9493929190610cc2565b6040516020818303038152906040528051906020012060001c90506001548161087491906112a3565b915050919050565b60006002604051806040016040528085815260200184815250908060018154018082558091505060019003906000526020600020906002020160009091909190915060008201518160000190805190602001906108da9291906109e9565b50602082015181600101555050600060016002805490506108fb91906110fa565b9050336003600083815260200190815260200160002060006101000a81548173ffffffffffffffffffffffffffffffffffffffff021916908373ffffffffffffffffffffffffffffffffffffffff160217905550600460003373ffffffffffffffffffffffffffffffffffffffff1673ffffffffffffffffffffffffffffffffffffffff168152602001908152602001600020600081548092919061099f9061122c565b91905055507fcf9664bad2c3dc9f7fb5149e25fbb1c3f62b3901b988d7da988a2730409863c88185856040516109d793929190610d99565b60405180910390a18091505092915050565b8280546109f5906111c9565b90600052602060002090601f016020900481019282610a175760008555610a5e565b82601f10610a3057805160ff1916838001178555610a5e565b82800160010185558215610a5e579182015b82811115610a5d578251825591602001919060010190610a42565b5b509050610a6b9190610a6f565b5090565b5b80821115610a88576000816000905550600101610a70565b5090565b6000610a9f610a9a84610dfc565b610dd7565b905082815260208101848484011115610ab757600080fd5b610ac2848285611187565b509392505050565b600082601f830112610adb57600080fd5b8135610aeb848260208601610a8c565b91505092915050565b600081359050610b0381611415565b92915050565b600060208284031215610b1b57600080fd5b600082013567ffffffffffffffff811115610b3557600080fd5b610b4184828501610aca565b91505092915050565b600060208284031215610b5c57600080fd5b6000610b6a84828501610af4565b91505092915050565b6000610b7f8383610cb3565b60208301905092915050565b610b9c610b978261112e565b611275565b82525050565b6000610bad82610e3d565b610bb78185610e60565b9350610bc283610e2d565b8060005b83811015610bf3578151610bda8882610b73565b9750610be583610e53565b925050600181019050610bc6565b5085935050505092915050565b6000610c0b82610e48565b610c158185610e71565b9350610c25818560208601611196565b610c2e816113c1565b840191505092915050565b6000610c4482610e48565b610c4e8185610e82565b9350610c5e818560208601611196565b80840191505092915050565b6000610c77601f83610e71565b9150610c82826113ec565b602082019050919050565b610c9681611160565b82525050565b610cad610ca882611160565b611299565b82525050565b610cbc8161117a565b82525050565b6000610cce8287610c9c565b602082019150610cde8286610c9c565b602082019150610cee8285610b8b565b601482019150610cfe8284610c39565b915081905095945050505050565b60006020820190508181036000830152610d268184610ba2565b905092915050565b60006040820190508181036000830152610d488185610c00565b9050610d576020830184610c8d565b9392505050565b60006020820190508181036000830152610d7781610c6a565b9050919050565b6000602082019050610d936000830184610c8d565b92915050565b6000606082019050610dae6000830186610c8d565b8181036020830152610dc08185610c00565b9050610dcf6040830184610c8d565b949350505050565b6000610de1610df2565b9050610ded82826111fb565b919050565b6000604051905090565b600067ffffffffffffffff821115610e1757610e16611392565b5b610e20826113c1565b9050602081019050919050565b6000819050602082019050919050565b600081519050919050565b600081519050919050565b6000602082019050919050565b600082825260208201905092915050565b600082825260208201905092915050565b600081905092915050565b6000610e988261116a565b9150610ea38361116a565b92508263ffffffff03821115610ebc57610ebb611305565b5b828201905092915050565b6000610ed28261117a565b9150610edd8361117a565b92508260ff03821115610ef357610ef2611305565b5b828201905092915050565b6000610f0982611160565b9150610f1483611160565b925082610f2457610f23611334565b5b828204905092915050565b6000808291508390505b6001851115610f7957808604811115610f5557610f54611305565b5b6001851615610f645780820291505b8081029050610f72856113df565b9450610f39565b94509492505050565b6000610f8d82611160565b9150610f9883611160565b9250610fc57fffffffffffffffffffffffffffffffffffffffffffffffffffffffffffffffff8484610fcd565b905092915050565b600082610fdd5760019050611099565b81610feb5760009050611099565b8160018114611001576002811461100b5761103a565b6001915050611099565b60ff84111561101d5761101c611305565b5b8360020a91508482111561103457611033611305565b5b50611099565b5060208310610133831016604e8410600b841016171561106f5782820a90508381111561106a57611069611305565b5b611099565b61107c8484846001610f2f565b9250905081840481111561109357611092611305565b5b81810290505b9392505050565b60006110ab82611160565b91506110b683611160565b9250817fffffffffffffffffffffffffffffffffffffffffffffffffffffffffffffffff04831182151516156110ef576110ee611305565b5b828202905092915050565b600061110582611160565b915061111083611160565b92508282101561112357611122611305565b5b828203905092915050565b600061113982611140565b9050919050565b600073ffffffffffffffffffffffffffffffffffffffff82169050919050565b6000819050919050565b600063ffffffff82169050919050565b600060ff82169050919050565b82818337600083830152505050565b60005b838110156111b4578082015181840152602081019050611199565b838111156111c3576000848401525b50505050565b600060028204905060018216806111e157607f821691505b602082108114156111f5576111f4611363565b5b50919050565b611204826113c1565b810181811067ffffffffffffffff8211171561122357611222611392565b5b80604052505050565b600061123782611160565b91507fffffffffffffffffffffffffffffffffffffffffffffffffffffffffffffffff82141561126a57611269611305565b5b600182019050919050565b600061128082611287565b9050919050565b6000611292826113d2565b9050919050565b6000819050919050565b60006112ae82611160565b91506112b983611160565b9250826112c9576112c8611334565b5b828206905092915050565b60006112df8261116a565b91506112ea8361116a565b9250826112fa576112f9611334565b5b828206905092915050565b7f4e487b7100000000000000000000000000000000000000000000000000000000600052601160045260246000fd5b7f4e487b7100000000000000000000000000000000000000000000000000000000600052601260045260246000fd5b7f4e487b7100000000000000000000000000000000000000000000000000000000600052602260045260246000fd5b7f4e487b7100000000000000000000000000000000000000000000000000000000600052604160045260246000fd5b6000601f19601f8301169050919050565b60008160601b9050919050565b60008160011c9050919050565b7f596f752063616e206f6e6c792068617665206f6e652063686172616374657200600082015250565b61141e81611160565b811461142957600080fd5b5056fea26469706673582212200d2fd2f4dc7d5c80d33b567e6329f0ead5a41f76c60430d5d04698d2e711042464736f6c63430008040033",
  "linkReferences": {},
  "deployedLinkReferences": {}
}